{
  "_format": "hh-sol-artifact-1",
  "contractName": "Donation",
  "sourceName": "contracts/Donation.sol",
  "abi": [
    {
      "inputs": [],
      "stateMutability": "nonpayable",
      "type": "constructor"
    },
    {
      "anonymous": false,
      "inputs": [
        {
          "indexed": true,
          "internalType": "uint256",
          "name": "campaignId",
          "type": "uint256"
        },
        {
          "indexed": false,
          "internalType": "string",
          "name": "reason",
          "type": "string"
        }
      ],
      "name": "CampaignClosed",
      "type": "event"
    },
    {
      "anonymous": false,
      "inputs": [
        {
          "indexed": true,
          "internalType": "uint256",
          "name": "campaignId",
          "type": "uint256"
        },
        {
          "indexed": false,
          "internalType": "string",
          "name": "name",
          "type": "string"
        },
        {
          "indexed": false,
          "internalType": "uint256",
          "name": "targetAmount",
          "type": "uint256"
        }
      ],
      "name": "CampaignCreated",
      "type": "event"
    },
    {
      "anonymous": false,
      "inputs": [
        {
          "indexed": true,
          "internalType": "address",
          "name": "donor",
          "type": "address"
        },
        {
          "indexed": true,
          "internalType": "uint256",
          "name": "campaignId",
          "type": "uint256"
        },
        {
          "indexed": false,
          "internalType": "uint256",
          "name": "amount",
          "type": "uint256"
        },
        {
          "indexed": false,
          "internalType": "string",
          "name": "donorName",
          "type": "string"
        }
      ],
      "name": "DonationMade",
      "type": "event"
    },
    {
      "anonymous": false,
      "inputs": [
        {
          "indexed": true,
          "internalType": "address",
          "name": "admin",
          "type": "address"
        },
        {
          "indexed": false,
          "internalType": "uint256",
          "name": "amount",
          "type": "uint256"
        },
        {
          "indexed": false,
          "internalType": "uint256",
          "name": "campaignId",
          "type": "uint256"
        }
      ],
      "name": "FundsWithdrawn",
      "type": "event"
    },
    {
      "inputs": [],
      "name": "admin",
      "outputs": [
        {
          "internalType": "address",
          "name": "",
          "type": "address"
        }
      ],
      "stateMutability": "view",
      "type": "function"
    },
    {
      "inputs": [
        {
          "internalType": "uint256",
          "name": "",
          "type": "uint256"
        }
      ],
      "name": "campaigns",
      "outputs": [
        {
          "internalType": "string",
          "name": "name",
          "type": "string"
        },
        {
          "internalType": "uint256",
          "name": "targetAmount",
          "type": "uint256"
        },
        {
          "internalType": "uint256",
          "name": "fundsRaised",
          "type": "uint256"
        },
        {
          "internalType": "bool",
          "name": "active",
          "type": "bool"
        },
        {
          "internalType": "bool",
          "name": "fundsWithdrawn",
          "type": "bool"
        }
      ],
      "stateMutability": "view",
      "type": "function"
    },
    {
      "inputs": [
        {
          "internalType": "uint256",
          "name": "_campaignId",
          "type": "uint256"
        }
      ],
      "name": "closeCampaign",
      "outputs": [],
      "stateMutability": "nonpayable",
      "type": "function"
    },
    {
      "inputs": [
        {
          "internalType": "string",
          "name": "_name",
          "type": "string"
        },
        {
          "internalType": "uint256",
          "name": "_targetAmount",
          "type": "uint256"
        }
      ],
      "name": "createCampaign",
      "outputs": [],
      "stateMutability": "nonpayable",
      "type": "function"
    },
    {
      "inputs": [
        {
          "internalType": "uint256",
          "name": "_campaignId",
          "type": "uint256"
        },
        {
          "internalType": "string",
          "name": "_donationName",
          "type": "string"
        },
        {
          "internalType": "string",
          "name": "_donorName",
          "type": "string"
        }
      ],
      "name": "donate",
      "outputs": [],
      "stateMutability": "payable",
      "type": "function"
    },
    {
      "inputs": [
        {
          "internalType": "uint256",
          "name": "",
          "type": "uint256"
        }
      ],
      "name": "donations",
      "outputs": [
        {
          "internalType": "address",
          "name": "donor",
          "type": "address"
        },
        {
          "internalType": "string",
          "name": "donationName",
          "type": "string"
        },
        {
          "internalType": "uint256",
          "name": "amount",
          "type": "uint256"
        },
        {
          "internalType": "string",
          "name": "donorName",
          "type": "string"
        }
      ],
      "stateMutability": "view",
      "type": "function"
    },
    {
      "inputs": [],
      "name": "getAllCampaigns",
      "outputs": [
        {
          "components": [
            {
              "internalType": "string",
              "name": "name",
              "type": "string"
            },
            {
              "internalType": "uint256",
              "name": "targetAmount",
              "type": "uint256"
            },
            {
              "internalType": "uint256",
              "name": "fundsRaised",
              "type": "uint256"
            },
            {
              "internalType": "bool",
              "name": "active",
              "type": "bool"
            },
            {
              "internalType": "bool",
              "name": "fundsWithdrawn",
              "type": "bool"
            }
          ],
          "internalType": "struct Donation.Campaign[]",
          "name": "",
          "type": "tuple[]"
        }
      ],
      "stateMutability": "view",
      "type": "function"
    },
    {
      "inputs": [],
      "name": "getAllDonations",
      "outputs": [
        {
          "components": [
            {
              "internalType": "address",
              "name": "donor",
              "type": "address"
            },
            {
              "internalType": "string",
              "name": "donationName",
              "type": "string"
            },
            {
              "internalType": "uint256",
              "name": "amount",
              "type": "uint256"
            },
            {
              "internalType": "string",
              "name": "donorName",
              "type": "string"
            }
          ],
          "internalType": "struct Donation.DonationRecord[]",
          "name": "",
          "type": "tuple[]"
        }
      ],
      "stateMutability": "view",
      "type": "function"
    },
    {
      "inputs": [],
      "name": "getCampaignCount",
      "outputs": [
        {
          "internalType": "uint256",
          "name": "",
          "type": "uint256"
        }
      ],
      "stateMutability": "view",
      "type": "function"
    },
    {
      "inputs": [
        {
          "internalType": "uint256",
          "name": "_campaignId",
          "type": "uint256"
        }
      ],
      "name": "getCampaignWithdrawStatus",
      "outputs": [
        {
          "internalType": "bool",
          "name": "",
          "type": "bool"
        }
      ],
      "stateMutability": "view",
      "type": "function"
    },
    {
      "inputs": [
        {
          "internalType": "uint256",
          "name": "_campaignId",
          "type": "uint256"
        }
      ],
      "name": "withdrawCampaignFunds",
      "outputs": [],
      "stateMutability": "nonpayable",
      "type": "function"
    },
    {
      "inputs": [],
      "name": "withdrawFunds",
      "outputs": [],
      "stateMutability": "nonpayable",
      "type": "function"
    }
  ],
  "bytecode": "0x608060405273cb1510331f43409c66bbbe97a602caac146d75366000806101000a81548173ffffffffffffffffffffffffffffffffffffffff021916908373ffffffffffffffffffffffffffffffffffffffff160217905550348015606357600080fd5b50336000806101000a81548173ffffffffffffffffffffffffffffffffffffffff021916908373ffffffffffffffffffffffffffffffffffffffff160217905550612472806100b36000396000f3fe6080604052600436106100a75760003560e01c806386cdf6041161006457806386cdf604146101c0578063b0e1c1e1146101eb578063f102a67c14610214578063f2ccf8391461023d578063f851a44014610259578063f8626af814610284576100a7565b806314169e2a146100ac578063141961bc146100d557806324600fc31461011657806338a59a071461012d5780636caa92181461015857806385d4a82314610183575b600080fd5b3480156100b857600080fd5b506100d360048036038101906100ce919061134c565b6102c4565b005b3480156100e157600080fd5b506100fc60048036038101906100f7919061134c565b61055a565b60405161010d959493929190611433565b60405180910390f35b34801561012257600080fd5b5061012b610642565b005b34801561013957600080fd5b5061014261077c565b60405161014f9190611653565b60405180910390f35b34801561016457600080fd5b5061016d61095f565b60405161017a9190611675565b60405180910390f35b34801561018f57600080fd5b506101aa60048036038101906101a5919061134c565b61096c565b6040516101b79190611690565b60405180910390f35b3480156101cc57600080fd5b506101d56109ef565b6040516101e291906117f2565b60405180910390f35b3480156101f757600080fd5b50610212600480360381019061020d919061134c565b610b2a565b005b34801561022057600080fd5b5061023b60048036038101906102369190611949565b610ccd565b005b610257600480360381019061025291906119a5565b610eb7565b005b34801561026557600080fd5b5061026e61116e565b60405161027b9190611a3f565b60405180910390f35b34801561029057600080fd5b506102ab60048036038101906102a6919061134c565b611192565b6040516102bb9493929190611a5a565b60405180910390f35b60008054906101000a900473ffffffffffffffffffffffffffffffffffffffff1673ffffffffffffffffffffffffffffffffffffffff163373ffffffffffffffffffffffffffffffffffffffff1614610352576040517f08c379a000000000000000000000000000000000000000000000000000000000815260040161034990611b1f565b60405180910390fd5b6001805490508110610399576040517f08c379a000000000000000000000000000000000000000000000000000000000815260040161039090611b8b565b60405180910390fd5b6000600182815481106103af576103ae611bab565b5b906000526020600020906004020190506000816002015411610406576040517f08c379a00000000000000000000000000000000000000000000000000000000081526004016103fd90611c4c565b60405180910390fd5b8060030160019054906101000a900460ff1615610458576040517f08c379a000000000000000000000000000000000000000000000000000000000815260040161044f90611cde565b60405180910390fd5b60008160020154905060018260030160016101000a81548160ff02191690831515021790555060008054906101000a900473ffffffffffffffffffffffffffffffffffffffff1673ffffffffffffffffffffffffffffffffffffffff166108fc829081150290604051600060405180830381858888f193505050501580156104e4573d6000803e3d6000fd5b5060008054906101000a900473ffffffffffffffffffffffffffffffffffffffff1673ffffffffffffffffffffffffffffffffffffffff167ffbc3a599b784fe88772fc5abcc07223f64ca0b13acc341f4fb1e46bef0510eb4828560405161054d929190611cfe565b60405180910390a2505050565b6001818154811061056a57600080fd5b906000526020600020906004020160009150905080600001805461058d90611d56565b80601f01602080910402602001604051908101604052809291908181526020018280546105b990611d56565b80156106065780601f106105db57610100808354040283529160200191610606565b820191906000526020600020905b8154815290600101906020018083116105e957829003601f168201915b5050505050908060010154908060020154908060030160009054906101000a900460ff16908060030160019054906101000a900460ff16905085565b60008054906101000a900473ffffffffffffffffffffffffffffffffffffffff1673ffffffffffffffffffffffffffffffffffffffff163373ffffffffffffffffffffffffffffffffffffffff16146106d0576040517f08c379a00000000000000000000000000000000000000000000000000000000081526004016106c790611b1f565b60405180910390fd5b60004711610713576040517f08c379a000000000000000000000000000000000000000000000000000000000815260040161070a90611dd3565b60405180910390fd5b60008054906101000a900473ffffffffffffffffffffffffffffffffffffffff1673ffffffffffffffffffffffffffffffffffffffff166108fc479081150290604051600060405180830381858888f19350505050158015610779573d6000803e3d6000fd5b50565b60606002805480602002602001604051908101604052809291908181526020016000905b8282101561095657838290600052602060002090600402016040518060800160405290816000820160009054906101000a900473ffffffffffffffffffffffffffffffffffffffff1673ffffffffffffffffffffffffffffffffffffffff1673ffffffffffffffffffffffffffffffffffffffff16815260200160018201805461082990611d56565b80601f016020809104026020016040519081016040528092919081815260200182805461085590611d56565b80156108a25780601f10610877576101008083540402835291602001916108a2565b820191906000526020600020905b81548152906001019060200180831161088557829003601f168201915b50505050508152602001600282015481526020016003820180546108c590611d56565b80601f01602080910402602001604051908101604052809291908181526020018280546108f190611d56565b801561093e5780601f106109135761010080835404028352916020019161093e565b820191906000526020600020905b81548152906001019060200180831161092157829003601f168201915b505050505081525050815260200190600101906107a0565b50505050905090565b6000600180549050905090565b600060018054905082106109b5576040517f08c379a00000000000000000000000000000000000000000000000000000000081526004016109ac90611b8b565b60405180910390fd5b600182815481106109c9576109c8611bab565b5b906000526020600020906004020160030160019054906101000a900460ff169050919050565b60606001805480602002602001604051908101604052809291908181526020016000905b82821015610b2157838290600052602060002090600402016040518060a0016040529081600082018054610a4690611d56565b80601f0160208091040260200160405190810160405280929190818152602001828054610a7290611d56565b8015610abf5780601f10610a9457610100808354040283529160200191610abf565b820191906000526020600020905b815481529060010190602001808311610aa257829003601f168201915b5050505050815260200160018201548152602001600282015481526020016003820160009054906101000a900460ff161515151581526020016003820160019054906101000a900460ff16151515158152505081526020019060010190610a13565b50505050905090565b60008054906101000a900473ffffffffffffffffffffffffffffffffffffffff1673ffffffffffffffffffffffffffffffffffffffff163373ffffffffffffffffffffffffffffffffffffffff1614610bb8576040517f08c379a0000000000000000000000000000000000000000000000000000000008152600401610baf90611b1f565b60405180910390fd5b6001805490508110610bff576040517f08c379a0000000000000000000000000000000000000000000000000000000008152600401610bf690611b8b565b60405180910390fd5b600060018281548110610c1557610c14611bab565b5b906000526020600020906004020190508060030160009054906101000a900460ff16610c76576040517f08c379a0000000000000000000000000000000000000000000000000000000008152600401610c6d90611e3f565b60405180910390fd5b60008160030160006101000a81548160ff021916908315150217905550817f1118f9238ebbb1c87ff605d5c43a2cf2a15191bdebda07231d3de4195a6df15c604051610cc190611eab565b60405180910390a25050565b60008054906101000a900473ffffffffffffffffffffffffffffffffffffffff1673ffffffffffffffffffffffffffffffffffffffff163373ffffffffffffffffffffffffffffffffffffffff1614610d5b576040517f08c379a0000000000000000000000000000000000000000000000000000000008152600401610d5290611b1f565b60405180910390fd5b60008111610d9e576040517f08c379a0000000000000000000000000000000000000000000000000000000008152600401610d9590611f3d565b60405180910390fd5b60016040518060a00160405280848152602001838152602001600081526020016001151581526020016000151581525090806001815401808255809150506001900390600052602060002090600402016000909190919091506000820151816000019081610e0c9190612109565b50602082015181600101556040820151816002015560608201518160030160006101000a81548160ff02191690831515021790555060808201518160030160016101000a81548160ff0219169083151502179055505050600060018080549050610e76919061220a565b9050807f2170fee8e65b01596ec56f4b4df98e903e2baf55bb74a163480d31de5ce830258484604051610eaa92919061223e565b60405180910390a2505050565b6001805490508310610efe576040517f08c379a0000000000000000000000000000000000000000000000000000000008152600401610ef590611b8b565b60405180910390fd5b600060018481548110610f1457610f13611bab565b5b906000526020600020906004020190508060030160009054906101000a900460ff16610f75576040517f08c379a0000000000000000000000000000000000000000000000000000000008152600401610f6c906122ba565b60405180910390fd5b60003411610fb8576040517f08c379a0000000000000000000000000000000000000000000000000000000008152600401610faf9061234c565b60405180910390fd5b34816002016000828254610fcc919061236c565b92505081905550600260405180608001604052803373ffffffffffffffffffffffffffffffffffffffff16815260200185815260200134815260200184815250908060018154018082558091505060019003906000526020600020906004020160009091909190915060008201518160000160006101000a81548173ffffffffffffffffffffffffffffffffffffffff021916908373ffffffffffffffffffffffffffffffffffffffff16021790555060208201518160010190816110919190612109565b506040820151816002015560608201518160030190816110b19190612109565b505050833373ffffffffffffffffffffffffffffffffffffffff167fdfc64b8a2e4f0d5be90c383157204c42cd9bce6c7f27ab27be130ae5dff943d434856040516110fd9291906123a0565b60405180910390a380600101548160020154106111685760008160030160006101000a81548160ff021916908315150217905550837f1118f9238ebbb1c87ff605d5c43a2cf2a15191bdebda07231d3de4195a6df15c60405161115f9061241c565b60405180910390a25b50505050565b60008054906101000a900473ffffffffffffffffffffffffffffffffffffffff1681565b600281815481106111a257600080fd5b90600052602060002090600402016000915090508060000160009054906101000a900473ffffffffffffffffffffffffffffffffffffffff16908060010180546111eb90611d56565b80601f016020809104026020016040519081016040528092919081815260200182805461121790611d56565b80156112645780601f1061123957610100808354040283529160200191611264565b820191906000526020600020905b81548152906001019060200180831161124757829003601f168201915b50505050509080600201549080600301805461127f90611d56565b80601f01602080910402602001604051908101604052809291908181526020018280546112ab90611d56565b80156112f85780601f106112cd576101008083540402835291602001916112f8565b820191906000526020600020905b8154815290600101906020018083116112db57829003601f168201915b5050505050905084565b6000604051905090565b600080fd5b600080fd5b6000819050919050565b61132981611316565b811461133457600080fd5b50565b60008135905061134681611320565b92915050565b6000602082840312156113625761136161130c565b5b600061137084828501611337565b91505092915050565b600081519050919050565b600082825260208201905092915050565b60005b838110156113b3578082015181840152602081019050611398565b60008484015250505050565b6000601f19601f8301169050919050565b60006113db82611379565b6113e58185611384565b93506113f5818560208601611395565b6113fe816113bf565b840191505092915050565b61141281611316565b82525050565b60008115159050919050565b61142d81611418565b82525050565b600060a082019050818103600083015261144d81886113d0565b905061145c6020830187611409565b6114696040830186611409565b6114766060830185611424565b6114836080830184611424565b9695505050505050565b600081519050919050565b600082825260208201905092915050565b6000819050602082019050919050565b600073ffffffffffffffffffffffffffffffffffffffff82169050919050565b60006114e4826114b9565b9050919050565b6114f4816114d9565b82525050565b600082825260208201905092915050565b600061151682611379565b61152081856114fa565b9350611530818560208601611395565b611539816113bf565b840191505092915050565b61154d81611316565b82525050565b600060808301600083015161156b60008601826114eb565b5060208301518482036020860152611583828261150b565b91505060408301516115986040860182611544565b50606083015184820360608601526115b0828261150b565b9150508091505092915050565b60006115c98383611553565b905092915050565b6000602082019050919050565b60006115e98261148d565b6115f38185611498565b935083602082028501611605856114a9565b8060005b85811015611641578484038952815161162285826115bd565b945061162d836115d1565b925060208a01995050600181019050611609565b50829750879550505050505092915050565b6000602082019050818103600083015261166d81846115de565b905092915050565b600060208201905061168a6000830184611409565b92915050565b60006020820190506116a56000830184611424565b92915050565b600081519050919050565b600082825260208201905092915050565b6000819050602082019050919050565b6116e081611418565b82525050565b600060a0830160008301518482036000860152611703828261150b565b91505060208301516117186020860182611544565b50604083015161172b6040860182611544565b50606083015161173e60608601826116d7565b50608083015161175160808601826116d7565b508091505092915050565b600061176883836116e6565b905092915050565b6000602082019050919050565b6000611788826116ab565b61179281856116b6565b9350836020820285016117a4856116c7565b8060005b858110156117e057848403895281516117c1858261175c565b94506117cc83611770565b925060208a019950506001810190506117a8565b50829750879550505050505092915050565b6000602082019050818103600083015261180c818461177d565b905092915050565b600080fd5b600080fd5b7f4e487b7100000000000000000000000000000000000000000000000000000000600052604160045260246000fd5b611856826113bf565b810181811067ffffffffffffffff821117156118755761187461181e565b5b80604052505050565b6000611888611302565b9050611894828261184d565b919050565b600067ffffffffffffffff8211156118b4576118b361181e565b5b6118bd826113bf565b9050602081019050919050565b82818337600083830152505050565b60006118ec6118e784611899565b61187e565b90508281526020810184848401111561190857611907611819565b5b6119138482856118ca565b509392505050565b600082601f8301126119305761192f611814565b5b81356119408482602086016118d9565b91505092915050565b600080604083850312156119605761195f61130c565b5b600083013567ffffffffffffffff81111561197e5761197d611311565b5b61198a8582860161191b565b925050602061199b85828601611337565b9150509250929050565b6000806000606084860312156119be576119bd61130c565b5b60006119cc86828701611337565b935050602084013567ffffffffffffffff8111156119ed576119ec611311565b5b6119f98682870161191b565b925050604084013567ffffffffffffffff811115611a1a57611a19611311565b5b611a268682870161191b565b9150509250925092565b611a39816114d9565b82525050565b6000602082019050611a546000830184611a30565b92915050565b6000608082019050611a6f6000830187611a30565b8181036020830152611a8181866113d0565b9050611a906040830185611409565b8181036060830152611aa281846113d0565b905095945050505050565b7f4f6e6c79207468652061646d696e2063616e20706572666f726d20746869732060008201527f616374696f6e0000000000000000000000000000000000000000000000000000602082015250565b6000611b09602683611384565b9150611b1482611aad565b604082019050919050565b60006020820190508181036000830152611b3881611afc565b9050919050565b7f43616d706169676e20646f6573206e6f74206578697374000000000000000000600082015250565b6000611b75601783611384565b9150611b8082611b3f565b602082019050919050565b60006020820190508181036000830152611ba481611b68565b9050919050565b7f4e487b7100000000000000000000000000000000000000000000000000000000600052603260045260246000fd5b7f4e6f2066756e647320746f20776974686472617720666f72207468697320636160008201527f6d706169676e0000000000000000000000000000000000000000000000000000602082015250565b6000611c36602683611384565b9150611c4182611bda565b604082019050919050565b60006020820190508181036000830152611c6581611c29565b9050919050565b7f46756e647320616c72656164792077697468647261776e20666f72207468697360008201527f2063616d706169676e0000000000000000000000000000000000000000000000602082015250565b6000611cc8602983611384565b9150611cd382611c6c565b604082019050919050565b60006020820190508181036000830152611cf781611cbb565b9050919050565b6000604082019050611d136000830185611409565b611d206020830184611409565b9392505050565b7f4e487b7100000000000000000000000000000000000000000000000000000000600052602260045260246000fd5b60006002820490506001821680611d6e57607f821691505b602082108103611d8157611d80611d27565b5b50919050565b7f4e6f2066756e647320746f207769746864726177000000000000000000000000600082015250565b6000611dbd601483611384565b9150611dc882611d87565b602082019050919050565b60006020820190508181036000830152611dec81611db0565b9050919050565b7f43616d706169676e20697320616c726561647920636c6f736564000000000000600082015250565b6000611e29601a83611384565b9150611e3482611df3565b602082019050919050565b60006020820190508181036000830152611e5881611e1c565b9050919050565b7f436c6f736564206d616e75616c6c792062792061646d696e0000000000000000600082015250565b6000611e95601883611384565b9150611ea082611e5f565b602082019050919050565b60006020820190508181036000830152611ec481611e88565b9050919050565b7f54617267657420616d6f756e74206d757374206265206772656174657220746860008201527f616e203000000000000000000000000000000000000000000000000000000000602082015250565b6000611f27602483611384565b9150611f3282611ecb565b604082019050919050565b60006020820190508181036000830152611f5681611f1a565b9050919050565b60008190508160005260206000209050919050565b60006020601f8301049050919050565b600082821b905092915050565b600060088302611fbf7fffffffffffffffffffffffffffffffffffffffffffffffffffffffffffffffff82611f82565b611fc98683611f82565b95508019841693508086168417925050509392505050565b6000819050919050565b6000612006612001611ffc84611316565b611fe1565b611316565b9050919050565b6000819050919050565b61202083611feb565b61203461202c8261200d565b848454611f8f565b825550505050565b600090565b61204961203c565b612054818484612017565b505050565b5b818110156120785761206d600082612041565b60018101905061205a565b5050565b601f8211156120bd5761208e81611f5d565b61209784611f72565b810160208510156120a6578190505b6120ba6120b285611f72565b830182612059565b50505b505050565b600082821c905092915050565b60006120e0600019846008026120c2565b1980831691505092915050565b60006120f983836120cf565b9150826002028217905092915050565b61211282611379565b67ffffffffffffffff81111561212b5761212a61181e565b5b6121358254611d56565b61214082828561207c565b600060209050601f8311600181146121735760008415612161578287015190505b61216b85826120ed565b8655506121d3565b601f19841661218186611f5d565b60005b828110156121a957848901518255600182019150602085019450602081019050612184565b868310156121c657848901516121c2601f8916826120cf565b8355505b6001600288020188555050505b505050505050565b7f4e487b7100000000000000000000000000000000000000000000000000000000600052601160045260246000fd5b600061221582611316565b915061222083611316565b9250828203905081811115612238576122376121db565b5b92915050565b6000604082019050818103600083015261225881856113d0565b90506122676020830184611409565b9392505050565b7f43616d706169676e206973206e6f742061637469766500000000000000000000600082015250565b60006122a4601683611384565b91506122af8261226e565b602082019050919050565b600060208201905081810360008301526122d381612297565b9050919050565b7f446f6e6174696f6e20616d6f756e74206d75737420626520677265617465722060008201527f7468616e20300000000000000000000000000000000000000000000000000000602082015250565b6000612336602683611384565b9150612341826122da565b604082019050919050565b6000602082019050818103600083015261236581612329565b9050919050565b600061237782611316565b915061238283611316565b925082820190508082111561239a576123996121db565b5b92915050565b60006040820190506123b56000830185611409565b81810360208301526123c781846113d0565b90509392505050565b7f54617267657420616d6f756e7420616368696576656400000000000000000000600082015250565b6000612406601683611384565b9150612411826123d0565b602082019050919050565b60006020820190508181036000830152612435816123f9565b905091905056fea2646970667358221220e9cef2bb010f0d218c28161a8031482348eae194d9ca0eec5f5749c84eb4bb2364736f6c634300081c0033",
  "linkReferences": {},
  "deployedLinkReferences": {}
}