{
  "_format": "hh-sol-artifact-1",
  "contractName": "Donation",
  "sourceName": "contracts/Donation.sol",
  "abi": [
    {
      "inputs": [],
      "stateMutability": "nonpayable",
      "type": "constructor"
    },
    {
      "anonymous": false,
      "inputs": [
        {
          "indexed": true,
          "internalType": "uint256",
          "name": "campaignId",
          "type": "uint256"
        },
        {
          "indexed": false,
          "internalType": "string",
          "name": "reason",
          "type": "string"
        }
      ],
      "name": "CampaignClosed",
      "type": "event"
    },
    {
      "anonymous": false,
      "inputs": [
        {
          "indexed": true,
          "internalType": "uint256",
          "name": "campaignId",
          "type": "uint256"
        },
        {
          "indexed": false,
          "internalType": "string",
          "name": "name",
          "type": "string"
        },
        {
          "indexed": false,
          "internalType": "uint256",
          "name": "targetAmount",
          "type": "uint256"
        }
      ],
      "name": "CampaignCreated",
      "type": "event"
    },
    {
      "anonymous": false,
      "inputs": [
        {
          "indexed": true,
          "internalType": "address",
          "name": "donor",
          "type": "address"
        },
        {
          "indexed": true,
          "internalType": "uint256",
          "name": "campaignId",
          "type": "uint256"
        },
        {
          "indexed": false,
          "internalType": "uint256",
          "name": "amount",
          "type": "uint256"
        }
      ],
      "name": "DonationMade",
      "type": "event"
    },
    {
      "inputs": [],
      "name": "admin",
      "outputs": [
        {
          "internalType": "address",
          "name": "",
          "type": "address"
        }
      ],
      "stateMutability": "view",
      "type": "function"
    },
    {
      "inputs": [
        {
          "internalType": "uint256",
          "name": "",
          "type": "uint256"
        }
      ],
      "name": "campaigns",
      "outputs": [
        {
          "internalType": "string",
          "name": "name",
          "type": "string"
        },
        {
          "internalType": "uint256",
          "name": "targetAmount",
          "type": "uint256"
        },
        {
          "internalType": "uint256",
          "name": "fundsRaised",
          "type": "uint256"
        },
        {
          "internalType": "bool",
          "name": "active",
          "type": "bool"
        }
      ],
      "stateMutability": "view",
      "type": "function"
    },
    {
      "inputs": [
        {
          "internalType": "uint256",
          "name": "_campaignId",
          "type": "uint256"
        }
      ],
      "name": "closeCampaign",
      "outputs": [],
      "stateMutability": "nonpayable",
      "type": "function"
    },
    {
      "inputs": [
        {
          "internalType": "string",
          "name": "_name",
          "type": "string"
        },
        {
          "internalType": "uint256",
          "name": "_targetAmount",
          "type": "uint256"
        }
      ],
      "name": "createCampaign",
      "outputs": [],
      "stateMutability": "nonpayable",
      "type": "function"
    },
    {
      "inputs": [
        {
          "internalType": "uint256",
          "name": "_campaignId",
          "type": "uint256"
        },
        {
          "internalType": "string",
          "name": "_donationName",
          "type": "string"
        }
      ],
      "name": "donate",
      "outputs": [],
      "stateMutability": "payable",
      "type": "function"
    },
    {
      "inputs": [
        {
          "internalType": "uint256",
          "name": "",
          "type": "uint256"
        }
      ],
      "name": "donations",
      "outputs": [
        {
          "internalType": "address",
          "name": "donor",
          "type": "address"
        },
        {
          "internalType": "string",
          "name": "donationName",
          "type": "string"
        },
        {
          "internalType": "uint256",
          "name": "amount",
          "type": "uint256"
        }
      ],
      "stateMutability": "view",
      "type": "function"
    },
    {
      "inputs": [],
      "name": "getAllCampaigns",
      "outputs": [
        {
          "components": [
            {
              "internalType": "string",
              "name": "name",
              "type": "string"
            },
            {
              "internalType": "uint256",
              "name": "targetAmount",
              "type": "uint256"
            },
            {
              "internalType": "uint256",
              "name": "fundsRaised",
              "type": "uint256"
            },
            {
              "internalType": "bool",
              "name": "active",
              "type": "bool"
            }
          ],
          "internalType": "struct Donation.Campaign[]",
          "name": "",
          "type": "tuple[]"
        }
      ],
      "stateMutability": "view",
      "type": "function"
    },
    {
      "inputs": [],
      "name": "getAllDonations",
      "outputs": [
        {
          "components": [
            {
              "internalType": "address",
              "name": "donor",
              "type": "address"
            },
            {
              "internalType": "string",
              "name": "donationName",
              "type": "string"
            },
            {
              "internalType": "uint256",
              "name": "amount",
              "type": "uint256"
            }
          ],
          "internalType": "struct Donation.DonationRecord[]",
          "name": "",
          "type": "tuple[]"
        }
      ],
      "stateMutability": "view",
      "type": "function"
    },
    {
      "inputs": [],
      "name": "getCampaignCount",
      "outputs": [
        {
          "internalType": "uint256",
          "name": "",
          "type": "uint256"
        }
      ],
      "stateMutability": "view",
      "type": "function"
    },
    {
      "inputs": [],
      "name": "withdrawFunds",
      "outputs": [],
      "stateMutability": "nonpayable",
      "type": "function"
    }
  ],
  "bytecode": "0x6080604052348015600f57600080fd5b50336000806101000a81548173ffffffffffffffffffffffffffffffffffffffff021916908373ffffffffffffffffffffffffffffffffffffffff160217905550611d2e8061005f6000396000f3fe6080604052600436106100915760003560e01c80638d59d1f1116100595780638d59d1f11461016e578063b0e1c1e11461018a578063f102a67c146101b3578063f851a440146101dc578063f8626af81461020757610091565b8063141961bc1461009657806324600fc3146100d657806338a59a07146100ed5780636caa92181461011857806386cdf60414610143575b600080fd5b3480156100a257600080fd5b506100bd60048036038101906100b89190610e1f565b610246565b6040516100cd9493929190610f06565b60405180910390f35b3480156100e257600080fd5b506100eb61031b565b005b3480156100f957600080fd5b50610102610455565b60405161010f91906110fe565b60405180910390f35b34801561012457600080fd5b5061012d6105a6565b60405161013a9190611120565b60405180910390f35b34801561014f57600080fd5b506101586105b3565b604051610165919061126f565b60405180910390f35b610188600480360381019061018391906113c6565b6106d3565b005b34801561019657600080fd5b506101b160048036038101906101ac9190610e1f565b61096b565b005b3480156101bf57600080fd5b506101da60048036038101906101d59190611422565b610b0e565b005b3480156101e857600080fd5b506101f1610ccf565b6040516101fe919061148d565b60405180910390f35b34801561021357600080fd5b5061022e60048036038101906102299190610e1f565b610cf3565b60405161023d939291906114a8565b60405180910390f35b6001818154811061025657600080fd5b906000526020600020906004020160009150905080600001805461027990611515565b80601f01602080910402602001604051908101604052809291908181526020018280546102a590611515565b80156102f25780601f106102c7576101008083540402835291602001916102f2565b820191906000526020600020905b8154815290600101906020018083116102d557829003601f168201915b5050505050908060010154908060020154908060030160009054906101000a900460ff16905084565b60008054906101000a900473ffffffffffffffffffffffffffffffffffffffff1673ffffffffffffffffffffffffffffffffffffffff163373ffffffffffffffffffffffffffffffffffffffff16146103a9576040517f08c379a00000000000000000000000000000000000000000000000000000000081526004016103a0906115b8565b60405180910390fd5b600047116103ec576040517f08c379a00000000000000000000000000000000000000000000000000000000081526004016103e390611624565b60405180910390fd5b60008054906101000a900473ffffffffffffffffffffffffffffffffffffffff1673ffffffffffffffffffffffffffffffffffffffff166108fc479081150290604051600060405180830381858888f19350505050158015610452573d6000803e3d6000fd5b50565b60606002805480602002602001604051908101604052809291908181526020016000905b8282101561059d57838290600052602060002090600302016040518060600160405290816000820160009054906101000a900473ffffffffffffffffffffffffffffffffffffffff1673ffffffffffffffffffffffffffffffffffffffff1673ffffffffffffffffffffffffffffffffffffffff16815260200160018201805461050290611515565b80601f016020809104026020016040519081016040528092919081815260200182805461052e90611515565b801561057b5780601f106105505761010080835404028352916020019161057b565b820191906000526020600020905b81548152906001019060200180831161055e57829003601f168201915b5050505050815260200160028201548152505081526020019060010190610479565b50505050905090565b6000600180549050905090565b60606001805480602002602001604051908101604052809291908181526020016000905b828210156106ca578382906000526020600020906004020160405180608001604052908160008201805461060a90611515565b80601f016020809104026020016040519081016040528092919081815260200182805461063690611515565b80156106835780601f1061065857610100808354040283529160200191610683565b820191906000526020600020905b81548152906001019060200180831161066657829003601f168201915b5050505050815260200160018201548152602001600282015481526020016003820160009054906101000a900460ff161515151581525050815260200190600101906105d7565b50505050905090565b600180549050821061071a576040517f08c379a000000000000000000000000000000000000000000000000000000000815260040161071190611690565b60405180910390fd5b6000600183815481106107305761072f6116b0565b5b906000526020600020906004020190508060030160009054906101000a900460ff16610791576040517f08c379a00000000000000000000000000000000000000000000000000000000081526004016107889061172b565b60405180910390fd5b600034116107d4576040517f08c379a00000000000000000000000000000000000000000000000000000000081526004016107cb906117bd565b60405180910390fd5b348160020160008282546107e8919061180c565b92505081905550600260405180606001604052803373ffffffffffffffffffffffffffffffffffffffff16815260200184815260200134815250908060018154018082558091505060019003906000526020600020906003020160009091909190915060008201518160000160006101000a81548173ffffffffffffffffffffffffffffffffffffffff021916908373ffffffffffffffffffffffffffffffffffffffff16021790555060208201518160010190816108a791906119ec565b50604082015181600201555050823373ffffffffffffffffffffffffffffffffffffffff167fd97bcdf12fa1d5342fc942da5eadf35c7597f34f8da7274c2b0d2ad979842679346040516108fb9190611120565b60405180910390a380600101548160020154106109665760008160030160006101000a81548160ff021916908315150217905550827f1118f9238ebbb1c87ff605d5c43a2cf2a15191bdebda07231d3de4195a6df15c60405161095d90611b0a565b60405180910390a25b505050565b60008054906101000a900473ffffffffffffffffffffffffffffffffffffffff1673ffffffffffffffffffffffffffffffffffffffff163373ffffffffffffffffffffffffffffffffffffffff16146109f9576040517f08c379a00000000000000000000000000000000000000000000000000000000081526004016109f0906115b8565b60405180910390fd5b6001805490508110610a40576040517f08c379a0000000000000000000000000000000000000000000000000000000008152600401610a3790611690565b60405180910390fd5b600060018281548110610a5657610a556116b0565b5b906000526020600020906004020190508060030160009054906101000a900460ff16610ab7576040517f08c379a0000000000000000000000000000000000000000000000000000000008152600401610aae90611b76565b60405180910390fd5b60008160030160006101000a81548160ff021916908315150217905550817f1118f9238ebbb1c87ff605d5c43a2cf2a15191bdebda07231d3de4195a6df15c604051610b0290611be2565b60405180910390a25050565b60008054906101000a900473ffffffffffffffffffffffffffffffffffffffff1673ffffffffffffffffffffffffffffffffffffffff163373ffffffffffffffffffffffffffffffffffffffff1614610b9c576040517f08c379a0000000000000000000000000000000000000000000000000000000008152600401610b93906115b8565b60405180910390fd5b60008111610bdf576040517f08c379a0000000000000000000000000000000000000000000000000000000008152600401610bd690611c74565b60405180910390fd5b60016040518060800160405280848152602001838152602001600081526020016001151581525090806001815401808255809150506001900390600052602060002090600402016000909190919091506000820151816000019081610c4491906119ec565b50602082015181600101556040820151816002015560608201518160030160006101000a81548160ff0219169083151502179055505050600060018080549050610c8e9190611c94565b9050807f2170fee8e65b01596ec56f4b4df98e903e2baf55bb74a163480d31de5ce830258484604051610cc2929190611cc8565b60405180910390a2505050565b60008054906101000a900473ffffffffffffffffffffffffffffffffffffffff1681565b60028181548110610d0357600080fd5b90600052602060002090600302016000915090508060000160009054906101000a900473ffffffffffffffffffffffffffffffffffffffff1690806001018054610d4c90611515565b80601f0160208091040260200160405190810160405280929190818152602001828054610d7890611515565b8015610dc55780601f10610d9a57610100808354040283529160200191610dc5565b820191906000526020600020905b815481529060010190602001808311610da857829003601f168201915b5050505050908060020154905083565b6000604051905090565b600080fd5b600080fd5b6000819050919050565b610dfc81610de9565b8114610e0757600080fd5b50565b600081359050610e1981610df3565b92915050565b600060208284031215610e3557610e34610ddf565b5b6000610e4384828501610e0a565b91505092915050565b600081519050919050565b600082825260208201905092915050565b60005b83811015610e86578082015181840152602081019050610e6b565b60008484015250505050565b6000601f19601f8301169050919050565b6000610eae82610e4c565b610eb88185610e57565b9350610ec8818560208601610e68565b610ed181610e92565b840191505092915050565b610ee581610de9565b82525050565b60008115159050919050565b610f0081610eeb565b82525050565b60006080820190508181036000830152610f208187610ea3565b9050610f2f6020830186610edc565b610f3c6040830185610edc565b610f496060830184610ef7565b95945050505050565b600081519050919050565b600082825260208201905092915050565b6000819050602082019050919050565b600073ffffffffffffffffffffffffffffffffffffffff82169050919050565b6000610fa982610f7e565b9050919050565b610fb981610f9e565b82525050565b600082825260208201905092915050565b6000610fdb82610e4c565b610fe58185610fbf565b9350610ff5818560208601610e68565b610ffe81610e92565b840191505092915050565b61101281610de9565b82525050565b60006060830160008301516110306000860182610fb0565b50602083015184820360208601526110488282610fd0565b915050604083015161105d6040860182611009565b508091505092915050565b60006110748383611018565b905092915050565b6000602082019050919050565b600061109482610f52565b61109e8185610f5d565b9350836020820285016110b085610f6e565b8060005b858110156110ec57848403895281516110cd8582611068565b94506110d88361107c565b925060208a019950506001810190506110b4565b50829750879550505050505092915050565b600060208201905081810360008301526111188184611089565b905092915050565b60006020820190506111356000830184610edc565b92915050565b600081519050919050565b600082825260208201905092915050565b6000819050602082019050919050565b61117081610eeb565b82525050565b600060808301600083015184820360008601526111938282610fd0565b91505060208301516111a86020860182611009565b5060408301516111bb6040860182611009565b5060608301516111ce6060860182611167565b508091505092915050565b60006111e58383611176565b905092915050565b6000602082019050919050565b60006112058261113b565b61120f8185611146565b93508360208202850161122185611157565b8060005b8581101561125d578484038952815161123e85826111d9565b9450611249836111ed565b925060208a01995050600181019050611225565b50829750879550505050505092915050565b6000602082019050818103600083015261128981846111fa565b905092915050565b600080fd5b600080fd5b7f4e487b7100000000000000000000000000000000000000000000000000000000600052604160045260246000fd5b6112d382610e92565b810181811067ffffffffffffffff821117156112f2576112f161129b565b5b80604052505050565b6000611305610dd5565b905061131182826112ca565b919050565b600067ffffffffffffffff8211156113315761133061129b565b5b61133a82610e92565b9050602081019050919050565b82818337600083830152505050565b600061136961136484611316565b6112fb565b90508281526020810184848401111561138557611384611296565b5b611390848285611347565b509392505050565b600082601f8301126113ad576113ac611291565b5b81356113bd848260208601611356565b91505092915050565b600080604083850312156113dd576113dc610ddf565b5b60006113eb85828601610e0a565b925050602083013567ffffffffffffffff81111561140c5761140b610de4565b5b61141885828601611398565b9150509250929050565b6000806040838503121561143957611438610ddf565b5b600083013567ffffffffffffffff81111561145757611456610de4565b5b61146385828601611398565b925050602061147485828601610e0a565b9150509250929050565b61148781610f9e565b82525050565b60006020820190506114a2600083018461147e565b92915050565b60006060820190506114bd600083018661147e565b81810360208301526114cf8185610ea3565b90506114de6040830184610edc565b949350505050565b7f4e487b7100000000000000000000000000000000000000000000000000000000600052602260045260246000fd5b6000600282049050600182168061152d57607f821691505b6020821081036115405761153f6114e6565b5b50919050565b7f4f6e6c79207468652061646d696e2063616e20706572666f726d20746869732060008201527f616374696f6e0000000000000000000000000000000000000000000000000000602082015250565b60006115a2602683610e57565b91506115ad82611546565b604082019050919050565b600060208201905081810360008301526115d181611595565b9050919050565b7f4e6f2066756e647320746f207769746864726177000000000000000000000000600082015250565b600061160e601483610e57565b9150611619826115d8565b602082019050919050565b6000602082019050818103600083015261163d81611601565b9050919050565b7f43616d706169676e20646f6573206e6f74206578697374000000000000000000600082015250565b600061167a601783610e57565b915061168582611644565b602082019050919050565b600060208201905081810360008301526116a98161166d565b9050919050565b7f4e487b7100000000000000000000000000000000000000000000000000000000600052603260045260246000fd5b7f43616d706169676e206973206e6f742061637469766500000000000000000000600082015250565b6000611715601683610e57565b9150611720826116df565b602082019050919050565b6000602082019050818103600083015261174481611708565b9050919050565b7f446f6e6174696f6e20616d6f756e74206d75737420626520677265617465722060008201527f7468616e20300000000000000000000000000000000000000000000000000000602082015250565b60006117a7602683610e57565b91506117b28261174b565b604082019050919050565b600060208201905081810360008301526117d68161179a565b9050919050565b7f4e487b7100000000000000000000000000000000000000000000000000000000600052601160045260246000fd5b600061181782610de9565b915061182283610de9565b925082820190508082111561183a576118396117dd565b5b92915050565b60008190508160005260206000209050919050565b60006020601f8301049050919050565b600082821b905092915050565b6000600883026118a27fffffffffffffffffffffffffffffffffffffffffffffffffffffffffffffffff82611865565b6118ac8683611865565b95508019841693508086168417925050509392505050565b6000819050919050565b60006118e96118e46118df84610de9565b6118c4565b610de9565b9050919050565b6000819050919050565b611903836118ce565b61191761190f826118f0565b848454611872565b825550505050565b600090565b61192c61191f565b6119378184846118fa565b505050565b5b8181101561195b57611950600082611924565b60018101905061193d565b5050565b601f8211156119a05761197181611840565b61197a84611855565b81016020851015611989578190505b61199d61199585611855565b83018261193c565b50505b505050565b600082821c905092915050565b60006119c3600019846008026119a5565b1980831691505092915050565b60006119dc83836119b2565b9150826002028217905092915050565b6119f582610e4c565b67ffffffffffffffff811115611a0e57611a0d61129b565b5b611a188254611515565b611a2382828561195f565b600060209050601f831160018114611a565760008415611a44578287015190505b611a4e85826119d0565b865550611ab6565b601f198416611a6486611840565b60005b82811015611a8c57848901518255600182019150602085019450602081019050611a67565b86831015611aa95784890151611aa5601f8916826119b2565b8355505b6001600288020188555050505b505050505050565b7f54617267657420616d6f756e7420616368696576656400000000000000000000600082015250565b6000611af4601683610e57565b9150611aff82611abe565b602082019050919050565b60006020820190508181036000830152611b2381611ae7565b9050919050565b7f43616d706169676e20697320616c726561647920636c6f736564000000000000600082015250565b6000611b60601a83610e57565b9150611b6b82611b2a565b602082019050919050565b60006020820190508181036000830152611b8f81611b53565b9050919050565b7f436c6f736564206d616e75616c6c792062792061646d696e0000000000000000600082015250565b6000611bcc601883610e57565b9150611bd782611b96565b602082019050919050565b60006020820190508181036000830152611bfb81611bbf565b9050919050565b7f54617267657420616d6f756e74206d757374206265206772656174657220746860008201527f616e203000000000000000000000000000000000000000000000000000000000602082015250565b6000611c5e602483610e57565b9150611c6982611c02565b604082019050919050565b60006020820190508181036000830152611c8d81611c51565b9050919050565b6000611c9f82610de9565b9150611caa83610de9565b9250828203905081811115611cc257611cc16117dd565b5b92915050565b60006040820190508181036000830152611ce28185610ea3565b9050611cf16020830184610edc565b939250505056fea2646970667358221220d6c225fdeea4f93bfcc8481db27abbf8e12bec416b7689cfb10b03b5f009655164736f6c634300081c0033",
  "linkReferences": {},
  "deployedLinkReferences": {}
}